{
  "_format": "hh-sol-artifact-1",
  "contractName": "Community",
  "sourceName": "contracts/Community.sol",
  "abi": [
    {
      "inputs": [
        {
          "internalType": "address",
          "name": "_tokenContractAddress",
          "type": "address"
        },
        {
          "internalType": "uint256",
          "name": "_fee",
          "type": "uint256"
        }
      ],
      "stateMutability": "nonpayable",
      "type": "constructor"
    },
    {
      "inputs": [
        {
          "internalType": "uint256",
          "name": "chainid",
          "type": "uint256"
        }
      ],
      "name": "ChainNotSupported",
      "type": "error"
    },
    {
      "anonymous": false,
      "inputs": [
        {
          "indexed": true,
          "internalType": "address",
          "name": "previousOwner",
          "type": "address"
        },
        {
          "indexed": true,
          "internalType": "address",
          "name": "newOwner",
          "type": "address"
        }
      ],
      "name": "OwnershipTransferred",
      "type": "event"
    },
    {
      "inputs": [],
      "name": "getContractAddress",
      "outputs": [
        {
          "internalType": "address",
          "name": "",
          "type": "address"
        }
      ],
      "stateMutability": "view",
      "type": "function"
    },
    {
      "inputs": [],
      "name": "getFilesTableName",
      "outputs": [
        {
          "internalType": "string",
          "name": "",
          "type": "string"
        }
      ],
      "stateMutability": "view",
      "type": "function"
    },
    {
      "inputs": [
        {
          "internalType": "string",
          "name": "_type",
          "type": "string"
        },
        {
          "internalType": "string",
          "name": "_url",
          "type": "string"
        },
        {
          "internalType": "string",
          "name": "_hash",
          "type": "string"
        },
        {
          "internalType": "string",
          "name": "_title",
          "type": "string"
        },
        {
          "internalType": "string",
          "name": "_description",
          "type": "string"
        },
        {
          "internalType": "string",
          "name": "_tags",
          "type": "string"
        },
        {
          "internalType": "string",
          "name": "_createdAt",
          "type": "string"
        }
      ],
      "name": "insertIntoTable",
      "outputs": [],
      "stateMutability": "nonpayable",
      "type": "function"
    },
    {
      "inputs": [],
      "name": "isMember",
      "outputs": [
        {
          "internalType": "bool",
          "name": "",
          "type": "bool"
        }
      ],
      "stateMutability": "view",
      "type": "function"
    },
    {
      "inputs": [],
      "name": "joinCommunity",
      "outputs": [
        {
          "internalType": "bool",
          "name": "",
          "type": "bool"
        }
      ],
      "stateMutability": "nonpayable",
      "type": "function"
    },
    {
      "inputs": [
        {
          "internalType": "uint256",
          "name": "",
          "type": "uint256"
        }
      ],
      "name": "members",
      "outputs": [
        {
          "internalType": "address",
          "name": "",
          "type": "address"
        }
      ],
      "stateMutability": "view",
      "type": "function"
    },
    {
      "inputs": [],
      "name": "owner",
      "outputs": [
        {
          "internalType": "address",
          "name": "",
          "type": "address"
        }
      ],
      "stateMutability": "view",
      "type": "function"
    },
    {
      "inputs": [],
      "name": "renounceOwnership",
      "outputs": [],
      "stateMutability": "nonpayable",
      "type": "function"
    },
    {
      "inputs": [
        {
          "internalType": "address",
          "name": "controller",
          "type": "address"
        }
      ],
      "name": "setAccessControl",
      "outputs": [],
      "stateMutability": "nonpayable",
      "type": "function"
    },
    {
      "inputs": [],
      "name": "tokenContract",
      "outputs": [
        {
          "internalType": "contract Prime",
          "name": "",
          "type": "address"
        }
      ],
      "stateMutability": "view",
      "type": "function"
    },
    {
      "inputs": [
        {
          "internalType": "address",
          "name": "newOwner",
          "type": "address"
        }
      ],
      "name": "transferOwnership",
      "outputs": [],
      "stateMutability": "nonpayable",
      "type": "function"
    },
    {
      "inputs": [
        {
          "internalType": "string",
          "name": "_type",
          "type": "string"
        },
        {
          "internalType": "string",
          "name": "_url",
          "type": "string"
        },
        {
          "internalType": "string",
          "name": "_hash",
          "type": "string"
        },
        {
          "internalType": "string",
          "name": "_title",
          "type": "string"
        },
        {
          "internalType": "string",
          "name": "_description",
          "type": "string"
        },
        {
          "internalType": "string",
          "name": "_tags",
          "type": "string"
        },
        {
          "internalType": "string",
          "name": "_createdAt",
          "type": "string"
        },
        {
          "internalType": "string",
          "name": "_id",
          "type": "string"
        }
      ],
      "name": "updateTable",
      "outputs": [],
      "stateMutability": "nonpayable",
      "type": "function"
    },
    {
      "inputs": [
        {
          "internalType": "string",
          "name": "_title",
          "type": "string"
        },
        {
          "internalType": "string",
          "name": "_description",
          "type": "string"
        },
        {
          "internalType": "string",
          "name": "_type",
          "type": "string"
        },
        {
          "internalType": "string",
          "name": "_url",
          "type": "string"
        },
        {
          "internalType": "string",
          "name": "_hash",
          "type": "string"
        },
        {
          "internalType": "string",
          "name": "_tags",
          "type": "string"
        },
        {
          "internalType": "string",
          "name": "_createdAt",
          "type": "string"
        }
      ],
      "name": "uploadFile",
      "outputs": [],
      "stateMutability": "nonpayable",
      "type": "function"
    }
  ],
  "bytecode": "0x6080604090808252346200047857818162001aee80380380916200002482856200047d565b833981010312620004785780516001600160a01b039081811690819003620004785760208093015191600091825460018060a01b03199033828216178555833391167f8be0079c531659141344cd1fd0a4f28419497f9722a3daafe3b4186f6b6457e08680a360035416176003556001928355620000a1620004f8565b855191166001600160401b038287018181118482101762000464578752600f8352858301906e6c696272615f636f6d6d756e69747960881b825287519060a082019082821090821117620004505791889188959493835260758152858101907f696420696e7465676572207072696d617279206b65792c61646472657373207482527f6578742c7479706520746578742c75726c20746578742c686173682074657874848201527f2c7469746c6520746578742c6465736372697074696f6e20746578742c74616760608201527f7320746578742c637265617465644174207465787400000000000000000000006080820152468089917a184f03e93ff9f4daa797ed6e38ed64bf6a1f0100000000000000008082101562000442575b50896d04ee2d6d415b85acef81000000008084101562000433575b5050662386f26fc100008083101562000423575b506305f5e1008083101562000413575b506127108083101562000403575b506064821015620003f2575b8b600a80931015620003e7575b839c919c016200023481620004b7565b9751976200024390896200047d565b8088526200025190620004b7565b9b818b890194601f199e8f013687378901602101905b620003ae575b505050508b51948594898601986c021a922a0aa22902a20a126229609d1b8a52519081602d88016200029f92620004d3565b850190602d8201605f60f81b9052519182602e8301620002bf92620004d3565b0190602e8201600560fb1b9052519182602f8301620002de92620004d3565b01602f8101602960f81b9052036010810182526030016200030090826200047d565b84885180978195829463a15ab08d60e01b84523060048501528c6024850152519081604485015281606485016200033792620004d3565b601f0116810103606401925af1928315620003a257819362000368575b505050600455516114449081620006aa8239f35b9091809350813d83116200039a575b6200038381836200047d565b810103126200039757505138808062000354565b80fd5b503d62000377565b508351903d90823e3d90fd5b600019019083906f181899199a1a9b1b9c1cb0b131b232b360811b8282061a835304918215620003e15791908262000267565b6200026d565b909201918b62000224565b919060646002910491019162000217565b600491939204910191386200020b565b60089193920491019138620001fd565b60109193920491019138620001ed565b930192909104908938620001d9565b8793508104915038620001be565b634e487b7160e01b86526041600452602486fd5b634e487b7160e01b85526041600452602485fd5b600080fd5b601f909101601f19168101906001600160401b03821190821017620004a157604052565b634e487b7160e01b600052604160045260246000fd5b6001600160401b038111620004a157601f01601f191660200190565b60005b838110620004e75750506000910152565b8181015183820152602001620004d6565b46600103620005195773012969f7e3439a9b04025b5a049eb9bad82a8c1290565b46600a036200053a5773fad44bf5b843de943a09d4f3e84949a11d3aa3e690565b4661a4b1036200055c57739abd75e8640871a5a20d3b4ee6330a04c962affd90565b4661a4ba036200057e57731a22854c5b1642760a827f20137a67930ae108d290565b466089036200059f57735c4e6a9e5c1e1bf445a062006faf19ea6c49afea90565b4661013a03620005c1577359ef8bf2d6c102b4c42aef9189e1a9f0abfd652d90565b4662aa36a703620005e45773c50c62498448acc8dbde43da77f8d5d2e2c7597d90565b466101a403620006065773c72e8a7be04f2469f8c2db3f1bdf69a7d516abba90565b4662066eed03620006295773033f69e8d119205089ab15d340f5b797732f646b90565b4662013881036200064c57734b48841d4b32c4650e4abc117a03fe8b51f38f6890565b466204cb2f036200066f5773030bcf3d50cad04c2e57391b12740982a930862190565b46617a6903620006915773e7f1725e7734ce288f8367e1bb143e90bb3f051290565b60405163264e42cf60e01b8152466004820152602490fdfe60406080815260048036101561001457600080fd5b600091823560e01c8062b16fee146107c457806319129e5a14610747578063317808f81461070657806332a2c5d0146106eb578063545539c2146106cf57806355a373d6146106a65780635daf08ca14610665578063715018a61461060b5780638512f650146101f25780638da5cb5b146101ca578063bf9c1d31146101a6578063d02982cf1461017c5763f2fde38b146100ae57600080fd5b34610178576020366003190112610178576001600160a01b03823581811693919290849003610174576100df6109de565b83156101225750506000548260018060a01b0319821617600055167f8be0079c531659141344cd1fd0a4f28419497f9722a3daafe3b4186f6b6457e0600080a380f35b906020608492519162461bcd60e51b8352820152602660248201527f4f776e61626c653a206e6577206f776e657220697320746865207a65726f206160448201526564647265737360d01b6064820152fd5b8480fd5b8280fd5b8382346101a257816003193601126101a2576020906101996113ab565b90519015158152f35b5080fd5b83346101c7576101c46101b8366108f5565b95949094939193610c75565b80f35b80fd5b8382346101a257816003193601126101a257905490516001600160a01b039091168152602090f35b508290346101a2576101003660031901126101a2576001600160401b039083358281116106075761022690369086016108a9565b916024358181116101745761023e90369087016108a9565b9060443581811161058f5761025690369088016108a9565b6064358281116106035761026d90369089016108a9565b6084358381116105ff576102849036908a016108a9565b9360a4358481116105fb5761029c9036908b016108a9565b9460c4358581116105f7576102b49036908c016108a9565b60e4358681116105f3576102cb9036908d016108a9565b986102d590611046565b926102df90611046565b946102e990611046565b936102f390611046565b916102fd90611046565b9661030790611046565b9061031190611046565b90885197889360209687808701888199519283910191610330926107e1565b860198600b60fa1b998a8a820152815191828b60218401920191610353926107e1565b01896021820152815191828a6022840192019161036f926107e1565b0188602282015281519182896023840192019161038b926107e1565b018760238201528151918288602484019201916103a7926107e1565b018660248201528151918287602584019201916103c3926107e1565b018560258201528151918286602684019201916103df926107e1565b01036006810186526026016103f4908661086d565b6103fd33610f39565b61040690611046565b9286519788918483019567616464726573733d60c01b8752805190818760288701920191610433926107e1565b8301906028820152602981016269643d60e81b90528151918286602c840192019161045d926107e1565b0103600c81018852602c01610472908861086d565b6001600160a01b03610482611086565b169489549788610490610a36565b9061049a91610a71565b88519096858201908111828210176105de579361051997938c9d99979361053997938e602c988e528152948c8251610593575b905061052a9392915051998a966602aa82220aa22960cd1b868901526104fc815180928860278c0191016107e1565b8701916401029a2aa160dd1b6027840152518093898401906107e1565b0191835193849187850191016107e1565b0103600c81018552018361086d565b803b1561058f5761056394868094865197889586948593631bbd786d60e11b855230908501610c51565b03925af190811561058657506105765750f35b61057f90610829565b6101c75780f35b513d84823e3d90fd5b8580fd5b61052a949396506105c4926105d49260279251948592660102ba422a922960cd1b8a850152518092858501906107e1565b810103600781018452018261086d565b9390918f8c6104cd565b60418d634e487b7160e01b6000525260246000fd5b8a80fd5b8980fd5b8880fd5b8780fd5b8680fd5b8380fd5b83346101c757806003193601126101c7576106246109de565b600080546001600160a01b0319811682556001600160a01b03167f8be0079c531659141344cd1fd0a4f28419497f9722a3daafe3b4186f6b6457e08280a380f35b5090346101785760203660031901126101785735916002548310156101c757506106906020926109ad565b905491519160018060a01b039160031b1c168152f35b8382346101a257816003193601126101a25760035490516001600160a01b039091168152602090f35b83346101c7576101c46106e1366108f5565b9592909493610c75565b8382346101a257816003193601126101a25760209051308152f35b5082346101c757806003193601126101c7575061073061074392610728610a36565b905490610a71565b9051918291602083526020830190610804565b0390f35b5034610178576020366003190112610178576001600160a01b03823581811693859290918590036101785761077a611086565b16815491813b15610607578360649286519788958694638bb0ab9760e01b86523090860152602485015260448401525af190811561058657506107bb575080f35b6101c490610829565b8382346101a257816003193601126101a257602090610199611268565b60005b8381106107f45750506000910152565b81810151838201526020016107e4565b9060209161081d815180928185528580860191016107e1565b601f01601f1916010190565b6001600160401b03811161083c57604052565b634e487b7160e01b600052604160045260246000fd5b606081019081106001600160401b0382111761083c57604052565b90601f801991011681019081106001600160401b0382111761083c57604052565b6001600160401b03811161083c57601f01601f191660200190565b81601f820112156108f0578035906108c08261088e565b926108ce604051948561086d565b828452602083830101116108f057816000926020809301838601378301015290565b600080fd5b9060e06003198301126108f0576001600160401b0390600480358381116108f057846109229183016108a9565b936024358481116108f057816109399184016108a9565b936044358181116108f057826109509185016108a9565b936064358281116108f057836109679186016108a9565b936084358381116108f0578461097e9183016108a9565b9360a4358481116108f057816109959184016108a9565b9360c4359081116108f0576109aa92016108a9565b90565b6002548110156109c857600260005260206000200190600090565b634e487b7160e01b600052603260045260246000fd5b6000546001600160a01b031633036109f257565b606460405162461bcd60e51b815260206004820152602060248201527f4f776e61626c653a2063616c6c6572206973206e6f7420746865206f776e65726044820152fd5b60405190604082018281106001600160401b0382111761083c57604052600f82526e6c696272615f636f6d6d756e69747960881b6020830152565b60226109aa91610a89610a8346610aee565b94610aee565b6040519482610aa28794518092602080880191016107e1565b830190605f60f81b91826020820152610ac58251809360206021850191016107e1565b01906021820152610adf82518093602087850191016107e1565b0103600281018452018261086d565b6000908072184f03e93ff9f4daa797ed6e38ed64bf6a1f0160401b80821015610c43575b506d04ee2d6d415b85acef810000000080831015610c34575b50662386f26fc1000080831015610c25575b506305f5e10080831015610c16575b5061271080831015610c07575b506064821015610bf7575b600a80921015610bed575b60019081602181860195610b828761088e565b96610b90604051988961086d565b808852610b9f601f199161088e565b01366020890137860101905b610bb7575b5050505090565b600019019083906f181899199a1a9b1b9c1cb0b131b232b360811b8282061a835304918215610be857919082610bab565b610bb0565b9160010191610b6f565b9190606460029104910191610b64565b60049193920491019138610b59565b60089193920491019138610b4c565b60109193920491019138610b3d565b60209193920491019138610b2b565b604093508104915038610b12565b6109aa939260609260018060a01b0316825260208201528160408201520190610804565b929593919290916001600160a01b03610c8c611086565b169660045495610c9a610a36565b94610ca433610f39565b610cad90611046565b94610cb790611046565b90610cc190611046565b96610ccb90611046565b92610cd590611046565b93610cdf90611046565b98610ce990611046565b91610cf390611046565b916040998a519586956020809b81808a018c819d519283910191610d16926107e1565b890196600b60fa1b978884820152815191828560218401920191610d39926107e1565b01908760218301528051809360228401920191610d55926107e1565b01856022820152815191828d60238401920191610d71926107e1565b01846023820152815191828c60248401920191610d8d926107e1565b01836024820152815191828b60258401920191610da9926107e1565b01826025820152815191828a60268401920191610dc5926107e1565b01906026820152815191828860278401920191610de1926107e1565b0103600781018252602701610df6908261086d565b855192610e0284610852565b60368452848401907f616464726573732c747970652c75726c2c686173682c7469746c652c64657363825286888601751c9a5c1d1a5bdb8b1d1859dccb18dc99585d1959105d60521b9052610e5691610a71565b87516b024a729a2a92a1024a72a27960a51b8782015281519096879692610e84918391602c8a0191016107e1565b850190602c8201600560fb1b9052519182602d8301610ea2926107e1565b0190602d820167052ac8298aa8aa6560c31b905251918260358301610ec6926107e1565b0160358101602960f81b905203601681018252603601610ee6908261086d565b833b156108f057610f1193600092838551809781958294631bbd786d60e11b84523060048501610c51565b03925af1908115610f2f5750610f245750565b610f2d90610829565b565b513d6000823e3d90fd5b604051906001600160a01b0316610f4f82610852565b602a825260209081830160403682378351156109c8576030905382516001908110156109c857607860218501536029905b808211610fd4575050610f91575090565b6064906040519062461bcd60e51b825280600483015260248201527f537472696e67733a20686578206c656e67746820696e73756666696369656e746044820152fd5b9091600f81166010811015611031578551841015611031576f181899199a1a9b1b9c1cb0b131b232b360811b901a85840185015360041c91801561101c576000190190610f80565b60246000634e487b7160e01b81526011600452fd5b60246000634e487b7160e01b81526032600452fd5b6109aa60226040518093602760f81b908160208401526110708151809260206021870191016107e1565b820190602182015203600281018452018261086d565b466001036110a65773012969f7e3439a9b04025b5a049eb9bad82a8c1290565b46600a036110c65773fad44bf5b843de943a09d4f3e84949a11d3aa3e690565b4661a4b1036110e757739abd75e8640871a5a20d3b4ee6330a04c962affd90565b4661a4ba0361110857731a22854c5b1642760a827f20137a67930ae108d290565b4660890361112857735c4e6a9e5c1e1bf445a062006faf19ea6c49afea90565b4661013a03611149577359ef8bf2d6c102b4c42aef9189e1a9f0abfd652d90565b4662aa36a70361116b5773c50c62498448acc8dbde43da77f8d5d2e2c7597d90565b466101a40361118c5773c72e8a7be04f2469f8c2db3f1bdf69a7d516abba90565b4662066eed036111ae5773033f69e8d119205089ab15d340f5b797732f646b90565b4662013881036111d057734b48841d4b32c4650e4abc117a03fe8b51f38f6890565b466204cb2f036111f25773030bcf3d50cad04c2e57391b12740982a930862190565b46617a69036112135773e7f1725e7734ce288f8367e1bb143e90bb3f051290565b60405163264e42cf60e01b8152466004820152602490fd5b600254600160401b81101561083c5780600161124a92016002556109ad565b819291549060031b9160018060a01b03809116831b921b1916179055565b6003546040516370a0823160e01b81523360048201526001600160a01b03916020919082908290602490829087165afa9081156113325760009161137e575b506001548091111561133e57156112ef5780600092600354166044600154604051958693849263a9059cbb60e01b845230600485015260248401525af18015611332576112ff575b50506112fa3361122b565b600190565b81813d831161132b575b611313818361086d565b810103126108f05751801515036108f05738806112ef565b503d611309565b6040513d6000823e3d90fd5b60405162461bcd60e51b8152600481018390526018602482015277446f6e2774206861766520656e6f75676820746f6b656e7360401b6044820152606490fd5b908282813d83116113a4575b611394818361086d565b810103126101c7575051386112a7565b503d61138a565b60025460005b8181106113bf575050600090565b6113c8816109ad565b905460039190911b1c6001600160a01b031633146114075760001981146113f1576001016113b1565b634e487b7160e01b600052601160045260246000fd5b505060019056fea2646970667358221220c479759229cc6a2605fa7c5081f726869c098f1d89725fcb2a93d99bd8a5d7e564736f6c63430008130033",
  "linkReferences": {},
  "deployedLinkReferences": {}
}