{
  "_format": "hh-sol-artifact-1",
  "contractName": "Libra",
  "sourceName": "contracts/Libra.sol",
  "abi": [
    {
      "inputs": [
        {
          "internalType": "address",
          "name": "_tokenContractAddress",
          "type": "address"
        },
        {
          "internalType": "address",
          "name": "_rowController",
          "type": "address"
        }
      ],
      "stateMutability": "nonpayable",
      "type": "constructor"
    },
    {
      "inputs": [
        {
          "internalType": "uint256",
          "name": "chainid",
          "type": "uint256"
        }
      ],
      "name": "ChainNotSupported",
      "type": "error"
    },
    {
      "anonymous": false,
      "inputs": [
        {
          "indexed": true,
          "internalType": "address",
          "name": "previousOwner",
          "type": "address"
        },
        {
          "indexed": true,
          "internalType": "address",
          "name": "newOwner",
          "type": "address"
        }
      ],
      "name": "OwnershipTransferred",
      "type": "event"
    },
    {
      "inputs": [
        {
          "internalType": "string",
          "name": "_title",
          "type": "string"
        },
        {
          "internalType": "string",
          "name": "_description",
          "type": "string"
        },
        {
          "internalType": "string",
          "name": "_accessfee",
          "type": "string"
        },
        {
          "internalType": "uint256",
          "name": "_cost",
          "type": "uint256"
        }
      ],
      "name": "createCommunity",
      "outputs": [],
      "stateMutability": "nonpayable",
      "type": "function"
    },
    {
      "inputs": [],
      "name": "getCommunitiesTableName",
      "outputs": [
        {
          "internalType": "string",
          "name": "",
          "type": "string"
        }
      ],
      "stateMutability": "view",
      "type": "function"
    },
    {
      "inputs": [],
      "name": "getFilesTableName",
      "outputs": [
        {
          "internalType": "string",
          "name": "",
          "type": "string"
        }
      ],
      "stateMutability": "view",
      "type": "function"
    },
    {
      "inputs": [
        {
          "internalType": "uint256",
          "name": "_id",
          "type": "uint256"
        }
      ],
      "name": "hasAccess",
      "outputs": [
        {
          "internalType": "bool",
          "name": "",
          "type": "bool"
        }
      ],
      "stateMutability": "view",
      "type": "function"
    },
    {
      "inputs": [
        {
          "internalType": "string",
          "name": "_title",
          "type": "string"
        },
        {
          "internalType": "string",
          "name": "_description",
          "type": "string"
        },
        {
          "internalType": "string",
          "name": "_files",
          "type": "string"
        },
        {
          "internalType": "string",
          "name": "_accessfee",
          "type": "string"
        },
        {
          "internalType": "address",
          "name": "_contract",
          "type": "address"
        }
      ],
      "name": "insertIntoCommunitiesTable",
      "outputs": [],
      "stateMutability": "nonpayable",
      "type": "function"
    },
    {
      "inputs": [
        {
          "internalType": "string",
          "name": "_type",
          "type": "string"
        },
        {
          "internalType": "string",
          "name": "_url",
          "type": "string"
        },
        {
          "internalType": "string",
          "name": "_hash",
          "type": "string"
        },
        {
          "internalType": "string",
          "name": "_title",
          "type": "string"
        },
        {
          "internalType": "string",
          "name": "_description",
          "type": "string"
        },
        {
          "internalType": "string",
          "name": "_tags",
          "type": "string"
        },
        {
          "internalType": "string",
          "name": "_access",
          "type": "string"
        },
        {
          "internalType": "string",
          "name": "_cost",
          "type": "string"
        },
        {
          "internalType": "string",
          "name": "_createdAt",
          "type": "string"
        }
      ],
      "name": "insertIntoTable",
      "outputs": [],
      "stateMutability": "nonpayable",
      "type": "function"
    },
    {
      "inputs": [
        {
          "internalType": "address",
          "name": "",
          "type": "address"
        },
        {
          "internalType": "address",
          "name": "",
          "type": "address"
        },
        {
          "internalType": "uint256",
          "name": "",
          "type": "uint256"
        },
        {
          "internalType": "bytes",
          "name": "",
          "type": "bytes"
        }
      ],
      "name": "onERC721Received",
      "outputs": [
        {
          "internalType": "bytes4",
          "name": "",
          "type": "bytes4"
        }
      ],
      "stateMutability": "pure",
      "type": "function"
    },
    {
      "inputs": [],
      "name": "owner",
      "outputs": [
        {
          "internalType": "address",
          "name": "",
          "type": "address"
        }
      ],
      "stateMutability": "view",
      "type": "function"
    },
    {
      "inputs": [
        {
          "internalType": "uint256",
          "name": "_id",
          "type": "uint256"
        }
      ],
      "name": "payForAccess",
      "outputs": [],
      "stateMutability": "nonpayable",
      "type": "function"
    },
    {
      "inputs": [],
      "name": "renounceOwnership",
      "outputs": [],
      "stateMutability": "nonpayable",
      "type": "function"
    },
    {
      "inputs": [
        {
          "internalType": "address",
          "name": "controller",
          "type": "address"
        }
      ],
      "name": "setAccessControl",
      "outputs": [],
      "stateMutability": "nonpayable",
      "type": "function"
    },
    {
      "inputs": [],
      "name": "tokenContract",
      "outputs": [
        {
          "internalType": "contract Prime",
          "name": "",
          "type": "address"
        }
      ],
      "stateMutability": "view",
      "type": "function"
    },
    {
      "inputs": [
        {
          "internalType": "address",
          "name": "newOwner",
          "type": "address"
        }
      ],
      "name": "transferOwnership",
      "outputs": [],
      "stateMutability": "nonpayable",
      "type": "function"
    },
    {
      "inputs": [
        {
          "internalType": "string",
          "name": "_title",
          "type": "string"
        },
        {
          "internalType": "string",
          "name": "_description",
          "type": "string"
        },
        {
          "internalType": "string",
          "name": "_tags",
          "type": "string"
        },
        {
          "internalType": "string",
          "name": "_access",
          "type": "string"
        },
        {
          "internalType": "string",
          "name": "_files",
          "type": "string"
        },
        {
          "internalType": "string",
          "name": "_createdAt",
          "type": "string"
        },
        {
          "internalType": "string",
          "name": "_id",
          "type": "string"
        }
      ],
      "name": "updateCommunitiesTable",
      "outputs": [],
      "stateMutability": "nonpayable",
      "type": "function"
    },
    {
      "inputs": [
        {
          "internalType": "string",
          "name": "_type",
          "type": "string"
        },
        {
          "internalType": "string",
          "name": "_url",
          "type": "string"
        },
        {
          "internalType": "string",
          "name": "_hash",
          "type": "string"
        },
        {
          "internalType": "string",
          "name": "_title",
          "type": "string"
        },
        {
          "internalType": "string",
          "name": "_description",
          "type": "string"
        },
        {
          "internalType": "string",
          "name": "_tags",
          "type": "string"
        },
        {
          "internalType": "string",
          "name": "_access",
          "type": "string"
        },
        {
          "internalType": "string",
          "name": "_cost",
          "type": "string"
        },
        {
          "internalType": "string",
          "name": "_createdAt",
          "type": "string"
        },
        {
          "internalType": "string",
          "name": "_id",
          "type": "string"
        }
      ],
      "name": "updateTable",
      "outputs": [],
      "stateMutability": "nonpayable",
      "type": "function"
    },
    {
      "inputs": [
        {
          "internalType": "string",
          "name": "_title",
          "type": "string"
        },
        {
          "internalType": "string",
          "name": "_description",
          "type": "string"
        },
        {
          "internalType": "string",
          "name": "_type",
          "type": "string"
        },
        {
          "internalType": "string",
          "name": "_url",
          "type": "string"
        },
        {
          "internalType": "string",
          "name": "_hash",
          "type": "string"
        },
        {
          "internalType": "string",
          "name": "_tags",
          "type": "string"
        },
        {
          "internalType": "string",
          "name": "_access",
          "type": "string"
        },
        {
          "internalType": "string",
          "name": "_fileCost",
          "type": "string"
        },
        {
          "internalType": "string",
          "name": "_createdAt",
          "type": "string"
        },
        {
          "internalType": "uint256",
          "name": "_cost",
          "type": "uint256"
        }
      ],
      "name": "uploadFile",
      "outputs": [],
      "stateMutability": "nonpayable",
      "type": "function"
    }
  ],
  "bytecode": "0x60806040908082523462000397578181620043cc8038038091620000248285620003ce565b83398101031262000397576200003a81620003f2565b620000496020809301620003f2565b60008054336001600160a01b03198083168217845592946001600160a01b03948593909284929183167f8be0079c531659141344cd1fd0a4f28419497f9722a3daafe3b4186f6b6457e08980a316808460075416176007558360085416176008551690600954161760095580620000bf62000693565b1690845190620000cf826200039c565b60058252646c6962726160d81b8583015285516001600160401b039290919060c0830184811184821017620003425790620001bc918952608b84527f696420696e7465676572207072696d617279206b65792c6164647265737320749384898201527f6578742c7479706520746578742c75726c20746578742c6861736820746578748a8201527f2c7469746c6520746578742c6465736372697074696f6e20746578742c74616760608201527f7320746578742c61636365737320746578742c636f737420746578742c63726560808201526a185d1959105d081d195e1d60aa1b60a082015262000485565b938688518092818981620001e063a15ab08d60e01b9b8c8352306004840162000448565b03925af19081156200038d57869162000356575b506001556200020262000693565b169186519162000212836200039c565b60118352706c696272615f636f6d6d756e697469657360781b8784015287519160a0830190811183821017620003425792879492620002bd92620002d49897958b5260678252868201527f6578742c7469746c6520746578742c6465736372697074696f6e20746578742c8a8201527f66696c657320746578742c61636365737366656520746578742c636f6e74726160608201526618dd081d195e1d60ca1b608082015262000485565b918488518097819582948352306004840162000448565b03925af192831562000336578193620002fc575b50505060025551613b879081620008458239f35b9091809350813d83116200032e575b620003178183620003ce565b810103126200032b575051388080620002e8565b80fd5b503d6200030b565b508351903d90823e3d90fd5b634e487b7160e01b87526041600452602487fd5b90508681813d831162000385575b620003708183620003ce565b8101031262000381575138620001f4565b8580fd5b503d62000364565b88513d88823e3d90fd5b600080fd5b604081019081106001600160401b03821117620003b857604052565b634e487b7160e01b600052604160045260246000fd5b601f909101601f19168101906001600160401b03821190821017620003b857604052565b51906001600160a01b03821682036200039757565b6001600160401b038111620003b857601f01601f191660200190565b60005b838110620004375750506000910152565b818101518382015260200162000426565b909160609260018060a01b031682526040602083015262000479815180928160408601526020868601910162000423565b601f01601f1916010190565b90600046807a184f03e93ff9f4daa797ed6e38ed64bf6a1f0100000000000000008082101562000684575b506d04ee2d6d415b85acef81000000008082101562000676575b50662386f26fc100008082101562000668575b506305f5e100808210156200065a575b50612710808210156200064c575b5060648110156200063d575b600a8091101562000632575b600180840192816021620005446200052b8762000407565b966200053b6040519889620003ce565b80885262000407565b602087019790601f1901368937860101905b620005f9575b5050505091620005bb93603092620005f6946040519687946c021a922a0aa22902a20a126229609d1b6020870152620005a0815180926020602d8a01910162000423565b850191605f60f81b602d840152518093602e84019062000423565b01600560fb1b602e820152620005dc825180936020602f8501910162000423565b01602960f81b602f820152036010810184520182620003ce565b90565b600019019083906f181899199a1a9b1b9c1cb0b131b232b360811b8282061a8353049182156200062c5791908262000556565b6200055c565b916001019162000513565b60646002910492019162000507565b6004910492019138620004fb565b6008910492019138620004ed565b6010910492019138620004dd565b6020910492019138620004ca565b604093508204905038620004b0565b46600103620006b45773012969f7e3439a9b04025b5a049eb9bad82a8c1290565b46600a03620006d55773fad44bf5b843de943a09d4f3e84949a11d3aa3e690565b4661a4b103620006f757739abd75e8640871a5a20d3b4ee6330a04c962affd90565b4661a4ba036200071957731a22854c5b1642760a827f20137a67930ae108d290565b466089036200073a57735c4e6a9e5c1e1bf445a062006faf19ea6c49afea90565b4661013a036200075c577359ef8bf2d6c102b4c42aef9189e1a9f0abfd652d90565b4662aa36a7036200077f5773c50c62498448acc8dbde43da77f8d5d2e2c7597d90565b466101a403620007a15773c72e8a7be04f2469f8c2db3f1bdf69a7d516abba90565b4662066eed03620007c45773033f69e8d119205089ab15d340f5b797732f646b90565b466201388103620007e757734b48841d4b32c4650e4abc117a03fe8b51f38f6890565b466204cb2f036200080a5773030bcf3d50cad04c2e57391b12740982a930862190565b46617a69036200082c5773e7f1725e7734ce288f8367e1bb143e90bb3f051290565b60405163264e42cf60e01b8152466004820152602490fdfe608060408181526004803610156200001657600080fd5b600092833560e01c908163150b7a0214620010be5750806317fd89d0146200108357806319129e5a1462000f755780631cf1efa91462000ec75780633132ddfe1462000e9a578063317808f81462000e475780634acbd1e41462000d2f57806355a373d61462000d045780636892cca61462000b26578063715018a61462000ac85780637ee72898146200093e5780638da5cb5b146200091457838163a329c2ec14620007b657508063bf262895146200055757838163c53c3f1a14620001b6575063f2fde38b14620000e857600080fd5b34620001b2576020366003190112620001b2576200010562001139565b906200011062001289565b6001600160a01b03918216928315620001605750506000548260018060a01b0319821617600055167f8be0079c531659141344cd1fd0a4f28419497f9722a3daafe3b4186f6b6457e0600080a380f35b906020608492519162461bcd60e51b8352820152602660248201527f4f776e61626c653a206e6577206f776e657220697320746865207a65726f206160448201526564647265737360d01b6064820152fd5b8280fd5b92905034620005535761014036600319011262000553576001600160401b039180358381116200054f57620001ef90369083016200123c565b6024358481116200052f576200020990369084016200123c565b6044358581116200054b576200022390369085016200123c565b9060643586811162000547576200023e90369086016200123c565b9160843587811162000543576200025990369087016200123c565b9660a4358181116200053f576200027490369088016200123c565b9060c4358181116200053b576200028f90369089016200123c565b60e4358281116200053757620002a99036908a016200123c565b90610104358381116200053357620002c59036908b016200123c565b92610124359081116200053357620002e19036908b016200123c565b97620002ed9062001a0f565b95620002f99062001a0f565b94620003059062001a0f565b96620003119062001a0f565b9a6200031d9062001a0f565b93620003299062001a0f565b90620003359062001a0f565b91620003419062001a0f565b926200034d9062001a0f565b938a519b8c98888a99519081602080809d019201916200036d9262001150565b8a0197600b60fa1b98898b820152815191828c60218401920191620003929262001150565b01886021820152815191828b60228401920191620003b09262001150565b01876022820152815191828a60238401920191620003ce9262001150565b01866023820152815191828960248401920191620003ec9262001150565b018560248201528151918288602584019201916200040a9262001150565b01846025820152815191828760268401920191620004289262001150565b01836026820152815191828660278401920191620004469262001150565b019160278301528051809360288401920191620004639262001150565b01036008810185526028016200047a9085620011fe565b620004853362001838565b620004909062001a0f565b906200049c9162001c04565b926001600160a01b03620004af62001a53565b1690600154948591620004c1620012e2565b92620004cd9362001c78565b90803b156200052f57620004fb94868094865197889586948593631bbd786d60e11b8552309085016200153b565b03925af1908115620005265750620005105750f35b6200051b906200119c565b620005235780f35b80fd5b513d84823e3d90fd5b8580fd5b8c80fd5b8b80fd5b8a80fd5b8980fd5b8880fd5b8780fd5b8680fd5b8480fd5b5050fd5b509034620001b2576080366003190112620001b2576001600160401b0382358181116200054f576200058d90369085016200123c565b906024358181116200052f57620005a890369086016200123c565b6044358281116200054b57620005c290369087016200123c565b9260018060a01b039586600854168651611aee918282019282841088851117620007a35762002064833982528781602093606435858201520301908af0801562000799578816898960095416823b156200079557895190630c894f2d60e11b825285820152818160248183875af180156200078b5762000773575b5050875163062f011f60e31b81528a818581855afa96871562000769578b97620006e8575b5050819088519384809263032a2c5d60e41b82525afa968715620006df575088966200069a575b505062000697955062001e47565b80f35b9080929650813d8311620006d7575b620006b58183620011fe565b810103126200054b575194851685036200052f57620006979493388062000689565b503d620006a9565b513d8a823e3d90fd5b909196503d808c843e620006fd8184620011fe565b8201918381840312620005375780519182116200053757019080601f830112156200053b57815191620007308362001220565b916200073f8b519384620011fe565b83835284848301011162000537578392620007609184808501910162001150565b95903862000662565b89513d8d823e3d90fd5b6200077e906200119c565b6200053f5789386200063d565b8a513d84823e3d90fd5b5080fd5b87513d8b823e3d90fd5b634e487b7160e01b8c526041855260248cfd5b92905034620005535760e036600319011262000553576001600160401b039180358381116200054f57620007ee90369083016200123c565b926024358181116200052f576200080990369084016200123c565b906044358181116200054b576200082490369085016200123c565b9160643582811162000547576200083f90369086016200123c565b60843583811162000543576200085990369087016200123c565b60a4358481116200053f576200087390369088016200123c565b9160c4359485116200053f57620008e795620008c4620008bd620008bd620008bd620008bd620008b6620008af8e620008cb9d3691016200123c565b9f62001a0f565b9962001a0f565b9462001a0f565b9462001d7d565b93620008e1620008db3362001838565b62001a0f565b62001c04565b620004cd6001600160a01b03620008fd62001a53565b169160025495866200090e6200150c565b62001c78565b5050346200079557816003193601126200079557905490516001600160a01b039091168152602090f35b509034620001b2576020918260031936011262000a3b576007548251636eb1769f60e11b815233818401523060248201528235926001600160a01b0392831692918681604481875afa90811562000abe57889162000a8b575b50848852818752600186892001541162000a515790606486928589528084528860018882209485541694015495885196879586946323b872dd60e01b86523390860152602485015260448401525af1801562000a475762000a09575b5062000697926003918552523390832062001f78565b8381813d831162000a3f575b62000a218183620011fe565b810103126200054f57518015150362000a3b5738620009f3565b8380fd5b503d62000a15565b83513d87823e3d90fd5b845162461bcd60e51b81529081018690526014602482015273082d8d8deeec2dcc6ca40dcdee840cadcdeeaced60631b6044820152606490fd5b90508681813d831162000ab6575b62000aa58183620011fe565b810103126200054757513862000997565b503d62000a99565b86513d8a823e3d90fd5b8334620005235780600319360112620005235762000ae562001289565b600080546001600160a01b0319811682556001600160a01b03167f8be0079c531659141344cd1fd0a4f28419497f9722a3daafe3b4186f6b6457e08280a380f35b50919034620007955761014036600319011262000795576001600160401b0392803584811162000a3b5762000b5f90369083016200123c565b6024358581116200054f5762000b7990369084016200123c565b6044358681116200052f5762000b9390369085016200123c565b916064358781116200054b5762000bae90369086016200123c565b91608435888111620005475762000bc990369087016200123c565b9160a435898111620005435762000be490369088016200123c565b9260c4358a81116200053f5762000bff90369089016200123c565b9460e4358b81116200053b5762000c1a9036908a016200123c565b96610104358c8111620005375762000c369036908b016200123c565b9b610124356001600654019a8b600655670de0b6b3a76400009182810292818404149015171562000cf1578c5192838e019081118482101762000cdc578d5233835260208084019283528c8f52528b8d20915182546001600160a01b0319166001600160a01b03919091161782555160019190910155999a620006979a62000ccb989197919691959194919391929062001561565b835260036020523390832062001f78565b604182634e487b7160e01b6000525260246000fd5b634e487b7160e01b8e526011905260248dfd5b505034620007955781600319360112620007955760075490516001600160a01b039091168152602090f35b838234620007955761012036600319011262000795576001600160401b03813581811162000a3b5762000d6690369084016200123c565b906024358181116200054f5762000d8190369085016200123c565b6044358281116200052f5762000d9b90369086016200123c565b6064358381116200054b5762000db590369087016200123c565b608435848111620005475762000dcf90369088016200123c565b9060a435858111620005435762000dea90369089016200123c565b9260c4358681116200053f5762000e059036908a016200123c565b9460e4358781116200053b5762000e209036908b016200123c565b96610104359081116200053b57620006979962000e40913691016200123c565b9762001561565b505034620007955781600319360112620007955762000e969062000e6a62001289565b62000e8262000e78620012e2565b6001549062001305565b905191829160208352602083019062001175565b0390f35b5091346200052357602036600319011262000523575062000ebe6020923562001fb6565b90519015158152f35b838234620007955760a036600319011262000795576001600160401b03813581811162000a3b5762000efd90369084016200123c565b916024358281116200054f5762000f1890369083016200123c565b916044358181116200052f5762000f3390369084016200123c565b916064359182116200052f5762000f4d913691016200123c565b608435929091906001600160a01b038416840362000f7057620006979462001e47565b600080fd5b5091903462000795576020366003190112620007955762000f9562001139565b9062000fa062001289565b6001600160a01b038062000fb362001a53565b169460015491863b156200052f578351638bb0ab9760e01b8082523084830190815260208101959095526001600160a01b0387166040860152909790938791899182908490829060600103925af18015620010795762001062575b8596506200101b62001a53565b1660025491813b156200054b5784519384523090840190815260208101929092526001600160a01b03909416604082015290928491849190829084908290606001620004fb565b94909562001070906200119c565b9385906200100e565b84513d88823e3d90fd5b505034620007955781600319360112620007955762000e9690620010a662001289565b62000e82620010b46200150c565b6002549062001305565b92505034620001b2576080366003190112620001b257620010de62001139565b506024356001600160a01b03811603620001b257606435906001600160401b03908183116200054f57366023840112156200054f5782013590811162000a3b57369101602401116200079557630a85bd0160e11b8152602090f35b600435906001600160a01b038216820362000f7057565b60005b838110620011645750506000910152565b818101518382015260200162001153565b90602091620011908151809281855285808601910162001150565b601f01601f1916010190565b6001600160401b038111620011b057604052565b634e487b7160e01b600052604160045260246000fd5b604081019081106001600160401b03821117620011b057604052565b606081019081106001600160401b03821117620011b057604052565b90601f801991011681019081106001600160401b03821117620011b057604052565b6001600160401b038111620011b057601f01601f191660200190565b81601f8201121562000f7057803590620012568262001220565b92620012666040519485620011fe565b8284526020838301011162000f7057816000926020809301838601378301015290565b6000546001600160a01b031633036200129e57565b606460405162461bcd60e51b815260206004820152602060248201527f4f776e61626c653a2063616c6c6572206973206e6f7420746865206f776e65726044820152fd5b60405190620012f182620011c6565b60058252646c6962726160d81b6020830152565b60226200138e91620013226200131b4662001391565b9462001391565b60405194826200133d87945180926020808801910162001150565b830190605f60f81b918260208201526200136282518093602060218501910162001150565b019060218201526200137e825180936020878501910162001150565b01036002810184520182620011fe565b90565b6000908072184f03e93ff9f4daa797ed6e38ed64bf6a1f0160401b80821015620014fd575b506d04ee2d6d415b85acef810000000080831015620014ed575b50662386f26fc1000080831015620014dd575b506305f5e10080831015620014cd575b5061271080831015620014bd575b506064821015620014ac575b600a80921015620014a1575b600190816021818601956200142e8762001220565b966200143e6040519889620011fe565b8088526200144f601f199162001220565b01366020890137860101905b62001468575b5050505090565b600019019083906f181899199a1a9b1b9c1cb0b131b232b360811b8282061a8353049182156200149b579190826200145b565b62001461565b916001019162001419565b91906064600291049101916200140d565b6004919392049101913862001401565b60089193920491019138620013f3565b60109193920491019138620013e3565b60209193920491019138620013d0565b604093508104915038620013b6565b604051906200151b82620011c6565b60118252706c696272615f636f6d6d756e697469657360781b6020830152565b6200138e939260609260018060a01b031682526020820152816040820152019062001175565b93969594929392906001600160a01b036200157b62001a53565b1698600154976200158b620012e2565b97620015973362001838565b620015a29062001a0f565b96620015ae9062001a0f565b93620015ba9062001a0f565b95620015c69062001a0f565b97620015d29062001a0f565b9a620015de9062001a0f565b94620015ea9062001a0f565b90620015f69062001a0f565b91620016029062001a0f565b926200160e9062001a0f565b9460409b8c51998a98898b51809c60209d8e80809501920191620016329262001150565b8b01600b60fa1b998a838301528051809360218401920191620016559262001150565b01886021820152815191828d60228401920191620016739262001150565b01876022820152815191828c60238401920191620016919262001150565b01866023820152815191828b60248401920191620016af9262001150565b01856024820152815191828a60258401920191620016cd9262001150565b01846025820152815191828960268401920191620016eb9262001150565b01836026820152815191828860278401920191620017099262001150565b01826027820152815191828760288401920191620017279262001150565b01906028820152815191828560298401920191620017459262001150565b01036009810183526029016200175c9083620011fe565b84519060808201938285106001600160401b03861117620011b0577f616464726573732c747970652c75726c2c686173682c7469746c652c646573638692620017de968952604285528401527f72697074696f6e2c746167732c6163636573732c636f73742c637265617465648784015261105d60f21b606084015262001965565b833b1562000f70576200180c93600092838551809781958294631bbd786d60e11b845230600485016200153b565b03925af19081156200182e5750620018215750565b6200182c906200119c565b565b513d6000823e3d90fd5b604051906001600160a01b03166200185082620011e2565b602a825260209081830160403682378351156200194f576030905382516001908110156200194f57607860218501536029905b808211620018d957505062001896575090565b6064906040519062461bcd60e51b825280600483015260248201527f537472696e67733a20686578206c656e67746820696e73756666696369656e746044820152fd5b9091600f811660108110156200193a5785518410156200193a576f181899199a1a9b1b9c1cb0b131b232b360811b901a85840185015360041c9180156200192557600019019062001883565b60246000634e487b7160e01b81526011600452fd5b60246000634e487b7160e01b81526032600452fd5b634e487b7160e01b600052603260045260246000fd5b92620019796036926200138e949562001305565b906040519485926b024a729a2a92a1024a72a27960a51b6020850152620019ab815180926020602c8801910162001150565b8301600560fb1b602c820152620019cd825180936020602d8501910162001150565b0167052ac8298aa8aa6560c31b602d820152620019f582518093602060358501910162001150565b01602960f81b6035820152036016810184520182620011fe565b6200138e60226040518093602760f81b9081602084015262001a3c81518092602060218701910162001150565b8201906021820152036002810184520182620011fe565b4660010362001a745773012969f7e3439a9b04025b5a049eb9bad82a8c1290565b46600a0362001a955773fad44bf5b843de943a09d4f3e84949a11d3aa3e690565b4661a4b10362001ab757739abd75e8640871a5a20d3b4ee6330a04c962affd90565b4661a4ba0362001ad957731a22854c5b1642760a827f20137a67930ae108d290565b4660890362001afa57735c4e6a9e5c1e1bf445a062006faf19ea6c49afea90565b4661013a0362001b1c577359ef8bf2d6c102b4c42aef9189e1a9f0abfd652d90565b4662aa36a70362001b3f5773c50c62498448acc8dbde43da77f8d5d2e2c7597d90565b466101a40362001b615773c72e8a7be04f2469f8c2db3f1bdf69a7d516abba90565b4662066eed0362001b845773033f69e8d119205089ab15d340f5b797732f646b90565b46620138810362001ba757734b48841d4b32c4650e4abc117a03fe8b51f38f6890565b466204cb2f0362001bca5773030bcf3d50cad04c2e57391b12740982a930862190565b46617a690362001bec5773e7f1725e7734ce288f8367e1bb143e90bb3f051290565b60405163264e42cf60e01b8152466004820152602490fd5b602c6200182c9193929360405194859167616464726573733d60c01b602084015262001c3b81518092602060288701910162001150565b8201600b60fa1b60288201526269643d60e81b602982015262001c68825180936020878501910162001150565b0103600c810185520183620011fe565b9062001c879193929362001305565b9060405191602091828401928484106001600160401b03851117620011b0576200138e94602c946040526000815291805162001d33575b5062001d236040519687946602aa82220aa22960cd1b8487015262001ced815180928660278a01910162001150565b85016401029a2aa160dd1b602782015262001d1182518093868a8501910162001150565b01918351938491878501910162001150565b0103600c810184520182620011fe565b90915062001d7560276040518093660102ba422a922960cd1b8683015262001d648151809288868601910162001150565b8101036007810184520182620011fe565b903862001cbe565b9062001e376025949796926200182c96604051998a96835162001da98160209687808d01910162001150565b880195600b60fa1b96878682015262001dcc825180938860218501910162001150565b0186602182015262001de8825180938760228501910162001150565b0185602282015262001e04825180938660238501910162001150565b0184602382015262001e20825180938560248501910162001150565b019260248401528351938491878501910162001150565b01036005810185520183620011fe565b9293919262001f119262001eb591906001600160a01b0362001e6862001a53565b16966002549662001e786200150c565b95620008c4620008db62001eae62001ea762001ea762001ea762001ea0620008db3362001838565b9a62001a0f565b9562001a0f565b9562001838565b90836040519162001ec683620011e2565b603283527f616464726573732c7469746c652c6465736372697074696f6e2c66696c65732c6020840152711858d8d95cdcd999594b18dbdb9d1c9858dd60721b604084015262001965565b823b1562000f705762001f409260009283604051809681958294631bbd786d60e11b845230600485016200153b565b03925af1801562001f5357620018215750565b6040513d6000823e3d90fd5b80548210156200194f5760005260206000200190600090565b8054600160401b811015620011b05762001f989160018201815562001f5f565b819291549060031b9160018060a01b03809116831b921b1916179055565b600081815260046020908082526001916040838186200154156200205a5790919293948486905b62001fec575b50505050505090565b818752600380855283882080548310156200205257826200200d9162001f5f565b9054911b1c6001600160a01b0316331462002048576000198114620020355785018562001fdd565b634e487b7160e01b875260118552602487fd5b5050505050905090565b505062001fe3565b5050509150509056fe6080604090808252346200047857818162001aee80380380916200002482856200047d565b833981010312620004785780516001600160a01b039081811690819003620004785760208093015191600091825460018060a01b03199033828216178555833391167f8be0079c531659141344cd1fd0a4f28419497f9722a3daafe3b4186f6b6457e08680a360035416176003556001928355620000a1620004f8565b855191166001600160401b038287018181118482101762000464578752600f8352858301906e6c696272615f636f6d6d756e69747960881b825287519060a082019082821090821117620004505791889188959493835260758152858101907f696420696e7465676572207072696d617279206b65792c61646472657373207482527f6578742c7479706520746578742c75726c20746578742c686173682074657874848201527f2c7469746c6520746578742c6465736372697074696f6e20746578742c74616760608201527f7320746578742c637265617465644174207465787400000000000000000000006080820152468089917a184f03e93ff9f4daa797ed6e38ed64bf6a1f0100000000000000008082101562000442575b50896d04ee2d6d415b85acef81000000008084101562000433575b5050662386f26fc100008083101562000423575b506305f5e1008083101562000413575b506127108083101562000403575b506064821015620003f2575b8b600a80931015620003e7575b839c919c016200023481620004b7565b9751976200024390896200047d565b8088526200025190620004b7565b9b818b890194601f199e8f013687378901602101905b620003ae575b505050508b51948594898601986c021a922a0aa22902a20a126229609d1b8a52519081602d88016200029f92620004d3565b850190602d8201605f60f81b9052519182602e8301620002bf92620004d3565b0190602e8201600560fb1b9052519182602f8301620002de92620004d3565b01602f8101602960f81b9052036010810182526030016200030090826200047d565b84885180978195829463a15ab08d60e01b84523060048501528c6024850152519081604485015281606485016200033792620004d3565b601f0116810103606401925af1928315620003a257819362000368575b505050600455516114449081620006aa8239f35b9091809350813d83116200039a575b6200038381836200047d565b810103126200039757505138808062000354565b80fd5b503d62000377565b508351903d90823e3d90fd5b600019019083906f181899199a1a9b1b9c1cb0b131b232b360811b8282061a835304918215620003e15791908262000267565b6200026d565b909201918b62000224565b919060646002910491019162000217565b600491939204910191386200020b565b60089193920491019138620001fd565b60109193920491019138620001ed565b930192909104908938620001d9565b8793508104915038620001be565b634e487b7160e01b86526041600452602486fd5b634e487b7160e01b85526041600452602485fd5b600080fd5b601f909101601f19168101906001600160401b03821190821017620004a157604052565b634e487b7160e01b600052604160045260246000fd5b6001600160401b038111620004a157601f01601f191660200190565b60005b838110620004e75750506000910152565b8181015183820152602001620004d6565b46600103620005195773012969f7e3439a9b04025b5a049eb9bad82a8c1290565b46600a036200053a5773fad44bf5b843de943a09d4f3e84949a11d3aa3e690565b4661a4b1036200055c57739abd75e8640871a5a20d3b4ee6330a04c962affd90565b4661a4ba036200057e57731a22854c5b1642760a827f20137a67930ae108d290565b466089036200059f57735c4e6a9e5c1e1bf445a062006faf19ea6c49afea90565b4661013a03620005c1577359ef8bf2d6c102b4c42aef9189e1a9f0abfd652d90565b4662aa36a703620005e45773c50c62498448acc8dbde43da77f8d5d2e2c7597d90565b466101a403620006065773c72e8a7be04f2469f8c2db3f1bdf69a7d516abba90565b4662066eed03620006295773033f69e8d119205089ab15d340f5b797732f646b90565b4662013881036200064c57734b48841d4b32c4650e4abc117a03fe8b51f38f6890565b466204cb2f036200066f5773030bcf3d50cad04c2e57391b12740982a930862190565b46617a6903620006915773e7f1725e7734ce288f8367e1bb143e90bb3f051290565b60405163264e42cf60e01b8152466004820152602490fdfe60406080815260048036101561001457600080fd5b600091823560e01c8062b16fee146107c457806319129e5a14610747578063317808f81461070657806332a2c5d0146106eb578063545539c2146106cf57806355a373d6146106a65780635daf08ca14610665578063715018a61461060b5780638512f650146101f25780638da5cb5b146101ca578063bf9c1d31146101a6578063d02982cf1461017c5763f2fde38b146100ae57600080fd5b34610178576020366003190112610178576001600160a01b03823581811693919290849003610174576100df6109de565b83156101225750506000548260018060a01b0319821617600055167f8be0079c531659141344cd1fd0a4f28419497f9722a3daafe3b4186f6b6457e0600080a380f35b906020608492519162461bcd60e51b8352820152602660248201527f4f776e61626c653a206e6577206f776e657220697320746865207a65726f206160448201526564647265737360d01b6064820152fd5b8480fd5b8280fd5b8382346101a257816003193601126101a2576020906101996113ab565b90519015158152f35b5080fd5b83346101c7576101c46101b8366108f5565b95949094939193610c75565b80f35b80fd5b8382346101a257816003193601126101a257905490516001600160a01b039091168152602090f35b508290346101a2576101003660031901126101a2576001600160401b039083358281116106075761022690369086016108a9565b916024358181116101745761023e90369087016108a9565b9060443581811161058f5761025690369088016108a9565b6064358281116106035761026d90369089016108a9565b6084358381116105ff576102849036908a016108a9565b9360a4358481116105fb5761029c9036908b016108a9565b9460c4358581116105f7576102b49036908c016108a9565b60e4358681116105f3576102cb9036908d016108a9565b986102d590611046565b926102df90611046565b946102e990611046565b936102f390611046565b916102fd90611046565b9661030790611046565b9061031190611046565b90885197889360209687808701888199519283910191610330926107e1565b860198600b60fa1b998a8a820152815191828b60218401920191610353926107e1565b01896021820152815191828a6022840192019161036f926107e1565b0188602282015281519182896023840192019161038b926107e1565b018760238201528151918288602484019201916103a7926107e1565b018660248201528151918287602584019201916103c3926107e1565b018560258201528151918286602684019201916103df926107e1565b01036006810186526026016103f4908661086d565b6103fd33610f39565b61040690611046565b9286519788918483019567616464726573733d60c01b8752805190818760288701920191610433926107e1565b8301906028820152602981016269643d60e81b90528151918286602c840192019161045d926107e1565b0103600c81018852602c01610472908861086d565b6001600160a01b03610482611086565b169489549788610490610a36565b9061049a91610a71565b88519096858201908111828210176105de579361051997938c9d99979361053997938e602c988e528152948c8251610593575b905061052a9392915051998a966602aa82220aa22960cd1b868901526104fc815180928860278c0191016107e1565b8701916401029a2aa160dd1b6027840152518093898401906107e1565b0191835193849187850191016107e1565b0103600c81018552018361086d565b803b1561058f5761056394868094865197889586948593631bbd786d60e11b855230908501610c51565b03925af190811561058657506105765750f35b61057f90610829565b6101c75780f35b513d84823e3d90fd5b8580fd5b61052a949396506105c4926105d49260279251948592660102ba422a922960cd1b8a850152518092858501906107e1565b810103600781018452018261086d565b9390918f8c6104cd565b60418d634e487b7160e01b6000525260246000fd5b8a80fd5b8980fd5b8880fd5b8780fd5b8680fd5b8380fd5b83346101c757806003193601126101c7576106246109de565b600080546001600160a01b0319811682556001600160a01b03167f8be0079c531659141344cd1fd0a4f28419497f9722a3daafe3b4186f6b6457e08280a380f35b5090346101785760203660031901126101785735916002548310156101c757506106906020926109ad565b905491519160018060a01b039160031b1c168152f35b8382346101a257816003193601126101a25760035490516001600160a01b039091168152602090f35b83346101c7576101c46106e1366108f5565b9592909493610c75565b8382346101a257816003193601126101a25760209051308152f35b5082346101c757806003193601126101c7575061073061074392610728610a36565b905490610a71565b9051918291602083526020830190610804565b0390f35b5034610178576020366003190112610178576001600160a01b03823581811693859290918590036101785761077a611086565b16815491813b15610607578360649286519788958694638bb0ab9760e01b86523090860152602485015260448401525af190811561058657506107bb575080f35b6101c490610829565b8382346101a257816003193601126101a257602090610199611268565b60005b8381106107f45750506000910152565b81810151838201526020016107e4565b9060209161081d815180928185528580860191016107e1565b601f01601f1916010190565b6001600160401b03811161083c57604052565b634e487b7160e01b600052604160045260246000fd5b606081019081106001600160401b0382111761083c57604052565b90601f801991011681019081106001600160401b0382111761083c57604052565b6001600160401b03811161083c57601f01601f191660200190565b81601f820112156108f0578035906108c08261088e565b926108ce604051948561086d565b828452602083830101116108f057816000926020809301838601378301015290565b600080fd5b9060e06003198301126108f0576001600160401b0390600480358381116108f057846109229183016108a9565b936024358481116108f057816109399184016108a9565b936044358181116108f057826109509185016108a9565b936064358281116108f057836109679186016108a9565b936084358381116108f0578461097e9183016108a9565b9360a4358481116108f057816109959184016108a9565b9360c4359081116108f0576109aa92016108a9565b90565b6002548110156109c857600260005260206000200190600090565b634e487b7160e01b600052603260045260246000fd5b6000546001600160a01b031633036109f257565b606460405162461bcd60e51b815260206004820152602060248201527f4f776e61626c653a2063616c6c6572206973206e6f7420746865206f776e65726044820152fd5b60405190604082018281106001600160401b0382111761083c57604052600f82526e6c696272615f636f6d6d756e69747960881b6020830152565b60226109aa91610a89610a8346610aee565b94610aee565b6040519482610aa28794518092602080880191016107e1565b830190605f60f81b91826020820152610ac58251809360206021850191016107e1565b01906021820152610adf82518093602087850191016107e1565b0103600281018452018261086d565b6000908072184f03e93ff9f4daa797ed6e38ed64bf6a1f0160401b80821015610c43575b506d04ee2d6d415b85acef810000000080831015610c34575b50662386f26fc1000080831015610c25575b506305f5e10080831015610c16575b5061271080831015610c07575b506064821015610bf7575b600a80921015610bed575b60019081602181860195610b828761088e565b96610b90604051988961086d565b808852610b9f601f199161088e565b01366020890137860101905b610bb7575b5050505090565b600019019083906f181899199a1a9b1b9c1cb0b131b232b360811b8282061a835304918215610be857919082610bab565b610bb0565b9160010191610b6f565b9190606460029104910191610b64565b60049193920491019138610b59565b60089193920491019138610b4c565b60109193920491019138610b3d565b60209193920491019138610b2b565b604093508104915038610b12565b6109aa939260609260018060a01b0316825260208201528160408201520190610804565b929593919290916001600160a01b03610c8c611086565b169660045495610c9a610a36565b94610ca433610f39565b610cad90611046565b94610cb790611046565b90610cc190611046565b96610ccb90611046565b92610cd590611046565b93610cdf90611046565b98610ce990611046565b91610cf390611046565b916040998a519586956020809b81808a018c819d519283910191610d16926107e1565b890196600b60fa1b978884820152815191828560218401920191610d39926107e1565b01908760218301528051809360228401920191610d55926107e1565b01856022820152815191828d60238401920191610d71926107e1565b01846023820152815191828c60248401920191610d8d926107e1565b01836024820152815191828b60258401920191610da9926107e1565b01826025820152815191828a60268401920191610dc5926107e1565b01906026820152815191828860278401920191610de1926107e1565b0103600781018252602701610df6908261086d565b855192610e0284610852565b60368452848401907f616464726573732c747970652c75726c2c686173682c7469746c652c64657363825286888601751c9a5c1d1a5bdb8b1d1859dccb18dc99585d1959105d60521b9052610e5691610a71565b87516b024a729a2a92a1024a72a27960a51b8782015281519096879692610e84918391602c8a0191016107e1565b850190602c8201600560fb1b9052519182602d8301610ea2926107e1565b0190602d820167052ac8298aa8aa6560c31b905251918260358301610ec6926107e1565b0160358101602960f81b905203601681018252603601610ee6908261086d565b833b156108f057610f1193600092838551809781958294631bbd786d60e11b84523060048501610c51565b03925af1908115610f2f5750610f245750565b610f2d90610829565b565b513d6000823e3d90fd5b604051906001600160a01b0316610f4f82610852565b602a825260209081830160403682378351156109c8576030905382516001908110156109c857607860218501536029905b808211610fd4575050610f91575090565b6064906040519062461bcd60e51b825280600483015260248201527f537472696e67733a20686578206c656e67746820696e73756666696369656e746044820152fd5b9091600f81166010811015611031578551841015611031576f181899199a1a9b1b9c1cb0b131b232b360811b901a85840185015360041c91801561101c576000190190610f80565b60246000634e487b7160e01b81526011600452fd5b60246000634e487b7160e01b81526032600452fd5b6109aa60226040518093602760f81b908160208401526110708151809260206021870191016107e1565b820190602182015203600281018452018261086d565b466001036110a65773012969f7e3439a9b04025b5a049eb9bad82a8c1290565b46600a036110c65773fad44bf5b843de943a09d4f3e84949a11d3aa3e690565b4661a4b1036110e757739abd75e8640871a5a20d3b4ee6330a04c962affd90565b4661a4ba0361110857731a22854c5b1642760a827f20137a67930ae108d290565b4660890361112857735c4e6a9e5c1e1bf445a062006faf19ea6c49afea90565b4661013a03611149577359ef8bf2d6c102b4c42aef9189e1a9f0abfd652d90565b4662aa36a70361116b5773c50c62498448acc8dbde43da77f8d5d2e2c7597d90565b466101a40361118c5773c72e8a7be04f2469f8c2db3f1bdf69a7d516abba90565b4662066eed036111ae5773033f69e8d119205089ab15d340f5b797732f646b90565b4662013881036111d057734b48841d4b32c4650e4abc117a03fe8b51f38f6890565b466204cb2f036111f25773030bcf3d50cad04c2e57391b12740982a930862190565b46617a69036112135773e7f1725e7734ce288f8367e1bb143e90bb3f051290565b60405163264e42cf60e01b8152466004820152602490fd5b600254600160401b81101561083c5780600161124a92016002556109ad565b819291549060031b9160018060a01b03809116831b921b1916179055565b6003546040516370a0823160e01b81523360048201526001600160a01b03916020919082908290602490829087165afa9081156113325760009161137e575b506001548091111561133e57156112ef5780600092600354166044600154604051958693849263a9059cbb60e01b845230600485015260248401525af18015611332576112ff575b50506112fa3361122b565b600190565b81813d831161132b575b611313818361086d565b810103126108f05751801515036108f05738806112ef565b503d611309565b6040513d6000823e3d90fd5b60405162461bcd60e51b8152600481018390526018602482015277446f6e2774206861766520656e6f75676820746f6b656e7360401b6044820152606490fd5b908282813d83116113a4575b611394818361086d565b810103126101c7575051386112a7565b503d61138a565b60025460005b8181106113bf575050600090565b6113c8816109ad565b905460039190911b1c6001600160a01b031633146114075760001981146113f1576001016113b1565b634e487b7160e01b600052601160045260246000fd5b505060019056fea2646970667358221220c479759229cc6a2605fa7c5081f726869c098f1d89725fcb2a93d99bd8a5d7e564736f6c63430008130033a26469706673582212201db943428cacbf5995b0beb7fb1f52507d0687bbe961841edbc0035a525d2d7164736f6c63430008130033",
  "linkReferences": {},
  "deployedLinkReferences": {}
}