{
  "_format": "hh-sol-artifact-1",
  "contractName": "Prime",
  "sourceName": "contracts/Prime.sol",
  "abi": [
    {
      "inputs": [],
      "stateMutability": "nonpayable",
      "type": "constructor"
    },
    {
      "anonymous": false,
      "inputs": [
        {
          "indexed": true,
          "internalType": "address",
          "name": "owner",
          "type": "address"
        },
        {
          "indexed": true,
          "internalType": "address",
          "name": "spender",
          "type": "address"
        },
        {
          "indexed": false,
          "internalType": "uint256",
          "name": "value",
          "type": "uint256"
        }
      ],
      "name": "Approval",
      "type": "event"
    },
    {
      "anonymous": false,
      "inputs": [
        {
          "indexed": true,
          "internalType": "address",
          "name": "from",
          "type": "address"
        },
        {
          "indexed": true,
          "internalType": "address",
          "name": "to",
          "type": "address"
        },
        {
          "indexed": false,
          "internalType": "uint256",
          "name": "value",
          "type": "uint256"
        }
      ],
      "name": "Transfer",
      "type": "event"
    },
    {
      "inputs": [
        {
          "internalType": "address",
          "name": "owner",
          "type": "address"
        },
        {
          "internalType": "address",
          "name": "spender",
          "type": "address"
        }
      ],
      "name": "allowance",
      "outputs": [
        {
          "internalType": "uint256",
          "name": "",
          "type": "uint256"
        }
      ],
      "stateMutability": "view",
      "type": "function"
    },
    {
      "inputs": [
        {
          "internalType": "address",
          "name": "spender",
          "type": "address"
        },
        {
          "internalType": "uint256",
          "name": "amount",
          "type": "uint256"
        }
      ],
      "name": "approve",
      "outputs": [
        {
          "internalType": "bool",
          "name": "",
          "type": "bool"
        }
      ],
      "stateMutability": "nonpayable",
      "type": "function"
    },
    {
      "inputs": [
        {
          "internalType": "address",
          "name": "account",
          "type": "address"
        }
      ],
      "name": "balanceOf",
      "outputs": [
        {
          "internalType": "uint256",
          "name": "",
          "type": "uint256"
        }
      ],
      "stateMutability": "view",
      "type": "function"
    },
    {
      "inputs": [],
      "name": "buyTokens",
      "outputs": [],
      "stateMutability": "payable",
      "type": "function"
    },
    {
      "inputs": [],
      "name": "decimals",
      "outputs": [
        {
          "internalType": "uint8",
          "name": "",
          "type": "uint8"
        }
      ],
      "stateMutability": "view",
      "type": "function"
    },
    {
      "inputs": [
        {
          "internalType": "address",
          "name": "spender",
          "type": "address"
        },
        {
          "internalType": "uint256",
          "name": "subtractedValue",
          "type": "uint256"
        }
      ],
      "name": "decreaseAllowance",
      "outputs": [
        {
          "internalType": "bool",
          "name": "",
          "type": "bool"
        }
      ],
      "stateMutability": "nonpayable",
      "type": "function"
    },
    {
      "inputs": [],
      "name": "getEthBalance",
      "outputs": [
        {
          "internalType": "uint256",
          "name": "",
          "type": "uint256"
        }
      ],
      "stateMutability": "view",
      "type": "function"
    },
    {
      "inputs": [
        {
          "internalType": "address",
          "name": "spender",
          "type": "address"
        },
        {
          "internalType": "uint256",
          "name": "addedValue",
          "type": "uint256"
        }
      ],
      "name": "increaseAllowance",
      "outputs": [
        {
          "internalType": "bool",
          "name": "",
          "type": "bool"
        }
      ],
      "stateMutability": "nonpayable",
      "type": "function"
    },
    {
      "inputs": [],
      "name": "name",
      "outputs": [
        {
          "internalType": "string",
          "name": "",
          "type": "string"
        }
      ],
      "stateMutability": "view",
      "type": "function"
    },
    {
      "inputs": [
        {
          "internalType": "uint256",
          "name": "tokenAmount",
          "type": "uint256"
        }
      ],
      "name": "sellTokens",
      "outputs": [],
      "stateMutability": "nonpayable",
      "type": "function"
    },
    {
      "inputs": [],
      "name": "symbol",
      "outputs": [
        {
          "internalType": "string",
          "name": "",
          "type": "string"
        }
      ],
      "stateMutability": "view",
      "type": "function"
    },
    {
      "inputs": [],
      "name": "tokenPrice",
      "outputs": [
        {
          "internalType": "uint256",
          "name": "",
          "type": "uint256"
        }
      ],
      "stateMutability": "view",
      "type": "function"
    },
    {
      "inputs": [],
      "name": "totalSupply",
      "outputs": [
        {
          "internalType": "uint256",
          "name": "",
          "type": "uint256"
        }
      ],
      "stateMutability": "view",
      "type": "function"
    },
    {
      "inputs": [
        {
          "internalType": "address",
          "name": "to",
          "type": "address"
        },
        {
          "internalType": "uint256",
          "name": "amount",
          "type": "uint256"
        }
      ],
      "name": "transfer",
      "outputs": [
        {
          "internalType": "bool",
          "name": "",
          "type": "bool"
        }
      ],
      "stateMutability": "nonpayable",
      "type": "function"
    },
    {
      "inputs": [
        {
          "internalType": "address",
          "name": "from",
          "type": "address"
        },
        {
          "internalType": "address",
          "name": "to",
          "type": "address"
        },
        {
          "internalType": "uint256",
          "name": "amount",
          "type": "uint256"
        }
      ],
      "name": "transferFrom",
      "outputs": [
        {
          "internalType": "bool",
          "name": "",
          "type": "bool"
        }
      ],
      "stateMutability": "nonpayable",
      "type": "function"
    }
  ],
  "bytecode": "0x608034620003d0576001600160401b039060409080820183811182821017620002d2578252600592838252602090645072696d6560d81b8284015283519484860186811083821117620002d25785526003918287526250524960e81b84880152845192818411620002d2578054936001968786811c96168015620003c5575b87871014620003af578190601f968781116200035b575b508790878311600114620002f457600092620002e8575b505060001982841b1c191690871b1781555b8751918211620002d25760049586548181811c91168015620002c7575b87821014620002b25785811162000269575b508598858411600114620001f65783929166038d7ea4c68000969798999a8492600095620001ea575b50501b92600019911b1c19161785555b553315620001ab5750600254683635c9adc5dea00000928382018092116200019657506000917fddf252ad1be2c89b69c2b068fc378daa952ba7f163c4a11628f55a4df523b3ef9160025533835282815284832084815401905584519384523393a351610c999081620003d68239f35b601190634e487b7160e01b6000525260246000fd5b90606493519262461bcd60e51b845283015260248201527f45524332303a206d696e7420746f20746865207a65726f2061646472657373006044820152fd5b01519350388062000116565b909291601f1983169988600052876000209260005b8c81106200025357508466038d7ea4c6800098999a9b9c1062000238575b50505050811b01855562000126565b01519060f884600019921b161c191690553880808062000229565b818301518555938601939189019189016200020b565b876000528660002086808601871c820192898710620002a8575b01861c019082905b8281106200029b575050620000ed565b600081550182906200028b565b9250819262000283565b602288634e487b7160e01b6000525260246000fd5b90607f1690620000db565b634e487b7160e01b600052604160045260246000fd5b015190503880620000ac565b90899350601f1983169185600052896000209260005b8b8282106200034457505084116200032b575b505050811b018155620000be565b015160001983861b60f8161c191690553880806200031d565b8385015186558d979095019493840193016200030a565b909150836000528760002087808501881c8201928a8610620003a5575b918b918695949301891c01915b8281106200039557505062000095565b600081558594508b910162000385565b9250819262000378565b634e487b7160e01b600052602260045260246000fd5b95607f16956200007e565b600080fdfe608060408181526004918236101561001657600080fd5b600092833560e01c91826306fdde03146107f157508163095ea7b3146107c757816318160ddd146107a857816323b872dd146106de578163313ce567146106c257816339509351146106725781636c11bcd31461045957816370a082311461042257816370ed0ada146104065781637ff9b596146103e757816395d89b4114610301578163a457c2d714610259578163a9059cbb14610228578163d0febe4c14610115575063dd62ed3e146100ca57600080fd5b34610111578060031936011261011157806020926100e661090d565b6100ee610928565b6001600160a01b0391821683526001865283832091168252845220549051908152f35b5080fd5b919050826003193601126102245761012e341515610bf7565b670de0b6b3a76400009182340483810290808204851490151715610211576005549081156101fe57048381029381850414901517156101eb5733156101a9575061017a82600254610976565b600255338352826020528083208281540190555190815281600080516020610c4483398151915260203393a380f35b6020606492519162461bcd60e51b8352820152601f60248201527f45524332303a206d696e7420746f20746865207a65726f2061646472657373006044820152fd5b634e487b7160e01b845260119052602483fd5b634e487b7160e01b865260128352602486fd5b634e487b7160e01b855260118252602485fd5b8280fd5b50503461011157806003193601126101115760209061025261024861090d565b6024359033610999565b5160018152f35b905082346102fe57826003193601126102fe5761027461090d565b918360243592338152600160205281812060018060a01b03861682526020522054908282106102ad576020856102528585038733610af5565b608490602086519162461bcd60e51b8352820152602560248201527f45524332303a2064656372656173656420616c6c6f77616e63652062656c6f77604482015264207a65726f60d81b6064820152fd5b80fd5b838334610111578160031936011261011157805191809380549160019083821c928285169485156103dd575b60209586861081146103ca578589529081156103a6575060011461036b575b610367878761035d828c038361093e565b51918291826108c4565b0390f35b9080949750528583205b82841061039357505050826103679461035d9282010194868061034c565b8054868501880152928601928101610375565b60ff19168887015250505050151560051b830101925061035d82610367868061034c565b634e487b7160e01b845260228352602484fd5b93607f169361032d565b5050346101115781600319360112610111576020906005549051908152f35b5050346101115781600319360112610111575133318152602090f35b5050346101115760203660031901126101115760209181906001600160a01b0361044a61090d565b16815280845220549051908152f35b91905034610224576020908160031936011261066e57823580159061047e8215610bf7565b3386528584528083872054106106345760055491828202928284041417156106215733156105d457338652858452828620548181106105865786670de0b6b3a76400008194828581968296338452838c52038983205580600254036002558851908152600080516020610c448339815191528a3392a304335af13d15610581573d67ffffffffffffffff811161056e57825190610524601f8201601f191686018361093e565b815285843d92013e5b15610536578380f35b5162461bcd60e51b81529182015260146024820152732330b4b632b2103a379039b2b7321022ba3432b960611b604482015260649150fd5b634e487b7160e01b865260418552602486fd5b61052d565b835162461bcd60e51b8152808701869052602260248201527f45524332303a206275726e20616d6f756e7420657863656564732062616c616e604482015261636560f01b6064820152608490fd5b50505162461bcd60e51b815291820152602160248201527f45524332303a206275726e2066726f6d20746865207a65726f206164647265736044820152607360f81b606482015260849150fd5b634e487b7160e01b865260118552602486fd5b50505162461bcd60e51b8152918201526014602482015273496e73756666696369656e742062616c616e636560601b604482015260649150fd5b8380fd5b5050346101115780600319360112610111576102526020926106bb61069561090d565b338352600186528483206001600160a01b03821684528652918490205460243590610976565b9033610af5565b5050346101115781600319360112610111576020905160128152f35b83915034610111576060366003190112610111576106fa61090d565b610702610928565b91846044359460018060a01b03841681526001602052818120338252602052205490600019820361073c575b602086610252878787610999565b848210610765575091839161075a6020969561025295033383610af5565b91939481935061072e565b606490602087519162461bcd60e51b8352820152601d60248201527f45524332303a20696e73756666696369656e7420616c6c6f77616e63650000006044820152fd5b5050346101115781600319360112610111576020906002549051908152f35b5050346101115780600319360112610111576020906102526107e761090d565b6024359033610af5565b9291503461066e578360031936011261066e57600354600181811c91869082811680156108ba575b60209586861082146108a75750848852908115610885575060011461084a575b610367868661035d828b038361093e565b929550600383528583205b82841061087257505050826103679461035d928201019438610839565b8054868501880152928601928101610855565b60ff191687860152505050151560051b830101925061035d8261036738610839565b634e487b7160e01b845260229052602483fd5b93607f1693610819565b6020808252825181830181905290939260005b8281106108f957505060409293506000838284010152601f8019910116010190565b8181018601518482016040015285016108d7565b600435906001600160a01b038216820361092357565b600080fd5b602435906001600160a01b038216820361092357565b90601f8019910116810190811067ffffffffffffffff82111761096057604052565b634e487b7160e01b600052604160045260246000fd5b9190820180921161098357565b634e487b7160e01b600052601160045260246000fd5b6001600160a01b03908116918215610aa25716918215610a51576000828152806020526040812054918083106109fd5760408282600080516020610c44833981519152958760209652828652038282205586815220818154019055604051908152a3565b60405162461bcd60e51b815260206004820152602660248201527f45524332303a207472616e7366657220616d6f756e7420657863656564732062604482015265616c616e636560d01b6064820152608490fd5b60405162461bcd60e51b815260206004820152602360248201527f45524332303a207472616e7366657220746f20746865207a65726f206164647260448201526265737360e81b6064820152608490fd5b60405162461bcd60e51b815260206004820152602560248201527f45524332303a207472616e736665722066726f6d20746865207a65726f206164604482015264647265737360d81b6064820152608490fd5b6001600160a01b03908116918215610ba65716918215610b565760207f8c5be1e5ebec7d5bd14f71427d1e84f3dd0314c0f7b2291e5b200ac8c7c3b925918360005260018252604060002085600052825280604060002055604051908152a3565b60405162461bcd60e51b815260206004820152602260248201527f45524332303a20617070726f766520746f20746865207a65726f206164647265604482015261737360f01b6064820152608490fd5b60405162461bcd60e51b8152602060048201526024808201527f45524332303a20617070726f76652066726f6d20746865207a65726f206164646044820152637265737360e01b6064820152608490fd5b15610bfe57565b60405162461bcd60e51b815260206004820152601d60248201527f416d6f756e74206d7573742062652067726561746572207468616e20300000006044820152606490fdfeddf252ad1be2c89b69c2b068fc378daa952ba7f163c4a11628f55a4df523b3efa264697066735822122004d32bc03fe5803ea5d2fd26f42384c6f52af91cf11787b9c8ca58a7a1cca96464736f6c63430008130033",
  "linkReferences": {},
  "deployedLinkReferences": {}
}