{
  "_format": "hh-sol-artifact-1",
  "contractName": "RowController",
  "sourceName": "contracts/RowController.sol",
  "abi": [
    {
      "anonymous": false,
      "inputs": [
        {
          "indexed": true,
          "internalType": "address",
          "name": "previousOwner",
          "type": "address"
        },
        {
          "indexed": true,
          "internalType": "address",
          "name": "newOwner",
          "type": "address"
        }
      ],
      "name": "OwnershipTransferred",
      "type": "event"
    },
    {
      "inputs": [
        {
          "internalType": "address",
          "name": "",
          "type": "address"
        }
      ],
      "name": "getPolicy",
      "outputs": [
        {
          "components": [
            {
              "internalType": "bool",
              "name": "allowInsert",
              "type": "bool"
            },
            {
              "internalType": "bool",
              "name": "allowUpdate",
              "type": "bool"
            },
            {
              "internalType": "bool",
              "name": "allowDelete",
              "type": "bool"
            },
            {
              "internalType": "string",
              "name": "whereClause",
              "type": "string"
            },
            {
              "internalType": "string",
              "name": "withCheck",
              "type": "string"
            },
            {
              "internalType": "string[]",
              "name": "updatableColumns",
              "type": "string[]"
            }
          ],
          "internalType": "struct TablelandPolicy",
          "name": "",
          "type": "tuple"
        }
      ],
      "stateMutability": "payable",
      "type": "function"
    },
    {
      "inputs": [
        {
          "internalType": "address",
          "name": "caller",
          "type": "address"
        },
        {
          "internalType": "uint256",
          "name": "",
          "type": "uint256"
        }
      ],
      "name": "getPolicy",
      "outputs": [
        {
          "components": [
            {
              "internalType": "bool",
              "name": "allowInsert",
              "type": "bool"
            },
            {
              "internalType": "bool",
              "name": "allowUpdate",
              "type": "bool"
            },
            {
              "internalType": "bool",
              "name": "allowDelete",
              "type": "bool"
            },
            {
              "internalType": "string",
              "name": "whereClause",
              "type": "string"
            },
            {
              "internalType": "string",
              "name": "withCheck",
              "type": "string"
            },
            {
              "internalType": "string[]",
              "name": "updatableColumns",
              "type": "string[]"
            }
          ],
          "internalType": "struct TablelandPolicy",
          "name": "",
          "type": "tuple"
        }
      ],
      "stateMutability": "payable",
      "type": "function"
    },
    {
      "inputs": [],
      "name": "owner",
      "outputs": [
        {
          "internalType": "address",
          "name": "",
          "type": "address"
        }
      ],
      "stateMutability": "view",
      "type": "function"
    },
    {
      "inputs": [],
      "name": "renounceOwnership",
      "outputs": [],
      "stateMutability": "nonpayable",
      "type": "function"
    },
    {
      "inputs": [
        {
          "internalType": "address",
          "name": "newOwner",
          "type": "address"
        }
      ],
      "name": "transferOwnership",
      "outputs": [],
      "stateMutability": "nonpayable",
      "type": "function"
    }
  ],
  "bytecode": "0x6080806040523461005b5760008054336001600160a01b0319821681178355916001600160a01b03909116907f8be0079c531659141344cd1fd0a4f28419497f9722a3daafe3b4186f6b6457e09080a361090990816100618239f35b600080fdfe604060808152600436101561001357600080fd5b600090813560e01c80633791dc6a1461027757806366df322e1461019d578063715018a6146101405780638da5cb5b146101195763f2fde38b1461005657600080fd5b346101155760203660031901126101155761006f610295565b6100776102f8565b6001600160a01b039081169182156100c3575082546001600160a01b0319811683178455167f8be0079c531659141344cd1fd0a4f28419497f9722a3daafe3b4186f6b6457e08380a380f35b5162461bcd60e51b815260206004820152602660248201527f4f776e61626c653a206e6577206f776e657220697320746865207a65726f206160448201526564647265737360d01b6064820152608490fd5b5080fd5b5034610115578160031936011261011557905490516001600160a01b039091168152602090f35b823461019a578060031936011261019a576101596102f8565b80546001600160a01b03198116825581906001600160a01b03167f8be0079c531659141344cd1fd0a4f28419497f9722a3daafe3b4186f6b6457e08280a380f35b80fd5b508060031936011261011557906101ba6101b5610295565b610466565b91805191602091828452845115158385015282850151151581850152840151151560608401526101f9606085015160c0608086015260e08501906102d3565b60a0610216608087015192601f19938488830301848901526102d3565b95015192818587030160c08601528351918287528187019082808560051b8a0101960194975b8489106102495787870388f35b9091929394958480610265838686600196030188528a516102d3565b9801940198019791909493929461023c565b82602036600319011261019a5761028c610295565b506101156103dc565b600435906001600160a01b03821682036102ab57565b600080fd5b60005b8381106102c35750506000910152565b81810151838201526020016102b3565b906020916102ec815180928185528580860191016102b0565b601f01601f1916010190565b6000546001600160a01b0316330361030c57565b606460405162461bcd60e51b815260206004820152602060248201527f4f776e61626c653a2063616c6c6572206973206e6f7420746865206f776e65726044820152fd5b60c0810190811067ffffffffffffffff82111761036c57604052565b634e487b7160e01b600052604160045260246000fd5b6020810190811067ffffffffffffffff82111761036c57604052565b6040810190811067ffffffffffffffff82111761036c57604052565b90601f8019910116810190811067ffffffffffffffff82111761036c57604052565b604051906103e982610350565b606060a08360008152600060208201526000604082015282808201528260808201520152565b80511561041c5760200190565b634e487b7160e01b600052603260045260246000fd5b80516001101561041c5760400190565b80516002101561041c5760600190565b805182101561041c5760209160051b010190565b9061046f6103dc565b50600080546001600160a01b039384169316831461083e576040918251916104968361039e565b600190818452805b6020808210156104b95790606060209282880101520161049e565b50509194939093928151946060908187019567ffffffffffffffff968881108882111761082a578552602a8852602097888101918636843781511561081657603083538151841015610816576078602183015360295b8481116107a857506107665760288967616464726573733d60c01b936105826105929461056e60228c51809387820196610558602760f81b92838a5251809260218601906102b0565b82019060218201520360028101845201826103ba565b8a51968794850152518092858501906102b0565b81010360088101845201826103ba565b61059b8461040f565b526105a58361040f565b5083519560808701908111878210176107525784526003865286855b838110610743575050808451936105d78561039e565b600594858152647469746c6560d81b8a8201526105f38961040f565b526105fd8861040f565b5085516106098161039e565b600b81526a3232b9b1b934b83a34b7b760a91b8a82015261062989610432565b5261063388610432565b508551906106408261039e565b600491828152637461677360e01b8b82015261065b8a610442565b5261066589610442565b50849588935b6106a8575b5050505083519661068088610350565b8188528701528383870152850152519061069982610382565b8152608083015260a082015290565b90919295825187101561073d576106bf8784610452565b51511561073757808b6106e4925161070d575b506106dd8885610452565b5190610890565b955b60001981146106fa5784019291908461066b565b634e487b7160e01b895260118452602489fd5b610731916401030b732160dd1b8b51926107268461039e565b868452830152610890565b8b6106d2565b956106e6565b95610670565b8382828a0101520187906105c1565b634e487b7160e01b86526041600452602486fd5b60648987519062461bcd60e51b825280600483015260248201527f537472696e67733a20686578206c656e67746820696e73756666696369656e746044820152fd5b90600f81166010811015610802578351831015610802576f181899199a1a9b1b9c1cb0b131b232b360811b901a8383018c015360041c9080156107ee576000190161050f565b634e487b7160e01b89526011600452602489fd5b634e487b7160e01b8a52603260045260248afd5b634e487b7160e01b88526032600452602488fd5b634e487b7160e01b87526041600452602487fd5b90915060405161084d81610382565b8181526040519161085d83610350565b60018352600160208401526001604084015260405161087b81610382565b81815260608401526040519061069982610382565b60206108d19193929360405194816108b187935180928680870191016102b0565b82016108c5825180938680850191016102b0565b010380855201836103ba565b56fea264697066735822122041e51cc1d40cdfea01cfb71b9f6dd8f24c16e2262b2bbc2de07a35af9d51b46564736f6c63430008130033",
  "linkReferences": {},
  "deployedLinkReferences": {}
}